{
	"data": {
		"bytecode": {
			"linkReferences": {},
			"object": "6080604052600a5f553480156012575f80fd5b5061019a806100205f395ff3fe608060405234801561000f575f80fd5b5060043610610034575f3560e01c806302ff2fb314610038578063a3f1bd3514610056575b5f80fd5b610040610074565b60405161004d91906100a8565b60405180910390f35b61005e61007c565b60405161006b91906100a8565b60405180910390f35b5f8054905090565b5f60025f5461008b91906100ee565b905090565b5f819050919050565b6100a281610090565b82525050565b5f6020820190506100bb5f830184610099565b92915050565b7f4e487b71000000000000000000000000000000000000000000000000000000005f52601160045260245ffd5b5f6100f882610090565b915061010383610090565b925082820261011181610090565b91507f800000000000000000000000000000000000000000000000000000000000000084145f84121615610148576101476100c1565b5b828205841483151761015d5761015c6100c1565b5b509291505056fea26469706673582212201608f9adb491e9bb3656a1854c42b6f1576f61cc9437c05cf305fa35971f639364736f6c634300081a0033",
			"opcodes": "PUSH1 0x80 PUSH1 0x40 MSTORE PUSH1 0xA PUSH0 SSTORE CALLVALUE DUP1 ISZERO PUSH1 0x12 JUMPI PUSH0 DUP1 REVERT JUMPDEST POP PUSH2 0x19A DUP1 PUSH2 0x20 PUSH0 CODECOPY PUSH0 RETURN INVALID PUSH1 0x80 PUSH1 0x40 MSTORE CALLVALUE DUP1 ISZERO PUSH2 0xF JUMPI PUSH0 DUP1 REVERT JUMPDEST POP PUSH1 0x4 CALLDATASIZE LT PUSH2 0x34 JUMPI PUSH0 CALLDATALOAD PUSH1 0xE0 SHR DUP1 PUSH4 0x2FF2FB3 EQ PUSH2 0x38 JUMPI DUP1 PUSH4 0xA3F1BD35 EQ PUSH2 0x56 JUMPI JUMPDEST PUSH0 DUP1 REVERT JUMPDEST PUSH2 0x40 PUSH2 0x74 JUMP JUMPDEST PUSH1 0x40 MLOAD PUSH2 0x4D SWAP2 SWAP1 PUSH2 0xA8 JUMP JUMPDEST PUSH1 0x40 MLOAD DUP1 SWAP2 SUB SWAP1 RETURN JUMPDEST PUSH2 0x5E PUSH2 0x7C JUMP JUMPDEST PUSH1 0x40 MLOAD PUSH2 0x6B SWAP2 SWAP1 PUSH2 0xA8 JUMP JUMPDEST PUSH1 0x40 MLOAD DUP1 SWAP2 SUB SWAP1 RETURN JUMPDEST PUSH0 DUP1 SLOAD SWAP1 POP SWAP1 JUMP JUMPDEST PUSH0 PUSH1 0x2 PUSH0 SLOAD PUSH2 0x8B SWAP2 SWAP1 PUSH2 0xEE JUMP JUMPDEST SWAP1 POP SWAP1 JUMP JUMPDEST PUSH0 DUP2 SWAP1 POP SWAP2 SWAP1 POP JUMP JUMPDEST PUSH2 0xA2 DUP2 PUSH2 0x90 JUMP JUMPDEST DUP3 MSTORE POP POP JUMP JUMPDEST PUSH0 PUSH1 0x20 DUP3 ADD SWAP1 POP PUSH2 0xBB PUSH0 DUP4 ADD DUP5 PUSH2 0x99 JUMP JUMPDEST SWAP3 SWAP2 POP POP JUMP JUMPDEST PUSH32 0x4E487B7100000000000000000000000000000000000000000000000000000000 PUSH0 MSTORE PUSH1 0x11 PUSH1 0x4 MSTORE PUSH1 0x24 PUSH0 REVERT JUMPDEST PUSH0 PUSH2 0xF8 DUP3 PUSH2 0x90 JUMP JUMPDEST SWAP2 POP PUSH2 0x103 DUP4 PUSH2 0x90 JUMP JUMPDEST SWAP3 POP DUP3 DUP3 MUL PUSH2 0x111 DUP2 PUSH2 0x90 JUMP JUMPDEST SWAP2 POP PUSH32 0x8000000000000000000000000000000000000000000000000000000000000000 DUP5 EQ PUSH0 DUP5 SLT AND ISZERO PUSH2 0x148 JUMPI PUSH2 0x147 PUSH2 0xC1 JUMP JUMPDEST JUMPDEST DUP3 DUP3 SDIV DUP5 EQ DUP4 ISZERO OR PUSH2 0x15D JUMPI PUSH2 0x15C PUSH2 0xC1 JUMP JUMPDEST JUMPDEST POP SWAP3 SWAP2 POP POP JUMP INVALID LOG2 PUSH5 0x6970667358 0x22 SLT KECCAK256 AND ADDMOD 0xF9 0xAD 0xB4 SWAP2 0xE9 0xBB CALLDATASIZE JUMP LOG1 DUP6 0x4C TIMESTAMP 0xB6 CALL JUMPI PUSH16 0x61CC9437C05CF305FA35971F63936473 PUSH16 0x6C634300081A00330000000000000000 "
		},
		"gasEstimates": {
			"creation": {
				"codeDepositCost": "82000",
				"executionCost": "22232",
				"totalCost": "104232"
			},
			"external": {
				"getDouble()": "infinite",
				"getNumero()": "2410"
			}
		},
		"methodIdentifiers": {
			"getDouble()": "a3f1bd35",
			"getNumero()": "02ff2fb3"
		}
	},
	"abi": [
		{
			"inputs": [],
			"name": "getDouble",
			"outputs": [
				{
					"internalType": "int256",
					"name": "",
					"type": "int256"
				}
			],
			"stateMutability": "view",
			"type": "function"
		},
		{
			"inputs": [],
			"name": "getNumero",
			"outputs": [
				{
					"internalType": "int256",
					"name": "",
					"type": "int256"
				}
			],
			"stateMutability": "view",
			"type": "function"
		}
	]
}